:020000040800F2
:10000000300D0020050100086B0E0008B10D00083E
:10001000690E0008C70100085B2700080000000007
:100020000000000000000000000000006B1100084C
:10003000C901000800000000691100086D110008E6
:100040001F0100081F0100081F0100081F01000810
:100050001F0100081F0100081F0100081F01000800
:100060001F0100081F0100081F0100081F010008F0
:100070001F0100081F0100081F0100081F010008E0
:100080001F0100081F0100081F0100088126000849
:100090008D2600081F0100081F0100081F0100082D
:1000A0001F0100081F0100081F0100081F010008B0
:1000B0001F0100081F010008000000001F010008C8
:1000C0001F01000800000000000000001F010008E0
:1000D000000000001F0100081F01000800000000D0
:1000E0001F0100081F0100081F010008DFF810D0E1
:1000F00000F02CF8004800479D270008AFF300806F
:10010000300D00200648804706480047FEE7FEE71E
:10011000FEE7FEE7FEE7FEE7FEE7FEE7FEE7FEE7B7
:1001200019120008ED00000840EA01039B0703D004
:1001300009E008C9121F08C0042AFAD203E011F826
:10014000013B00F8013B521EF9D27047064C074DA7
:1001500006E0E06840F0010394E807009847103497
:10016000AC42F6D3FFF7C6FFEC2700080C280008C6
:1001700070B58C1810F8015B15F0070301D110F869
:10018000013B2A1106D110F8012B03E010F8016B96
:1001900001F8016B5B1EF9D12B0705D40023521E19
:1001A0000DD401F8013BFAE710F8013BCB1A921C81
:1001B00003E013F8015B01F8015B521EF9D5A1427F
:1001C000D8D3002070BDFEE7704772B6FEE700008E
:1001D00070B5044600F0F4F80546601C02D00448EF
:1001E0000078044400F0ECF8401BA042FAD370BD44
:1001F000040000202DE9F84FDFF89C91002409F15C
:10020000040A0AF1040B23460F270BF1040EBBE08E
:100210000125A5402A40AA4276D1DFF880C14E6868
:10022000A6EB0C0866452BD00DDC032E34D005DC84
:1002300036B3012E19D0022E2FD11BE0112E16D06D
:10024000122E2AD119E0B8F5881F19D006DCB8F5AE
:10025000803F15D0B8F5801F1FD111E0B8F5001F01
:100260000ED0B8F5041F18D10AE0CB6815E0CB68B2
:100270001B1D12E0CB6808330FE0CB680C330CE099
:100280008B682BB1012B4FF0080303D0456104E0CC
:10029000042302E0056100E00023FF2A01D806469E
:1002A00001E000F104064FEA840501D9A5F120051B
:1002B000D6F8008007FA05FC28EA0C0803FA05F5D1
:1002C00048EA0508C6F800804D68ED005BD5344D5E
:1002D000AE6946F00106AE61AD6924F0030605F093
:1002E000010500952F4D06EB050CDCF80850A6071C
:1002F000360F07FA06F825EA0805DFF8AC80404516
:1003000003D14FF0000810E03DE0DFF8A080404549
:1003100002D14FF0010808E0DFF89480404502D197
:100320004FF0020801E04FF0030808FA06F848EA27
:100330000508CCF808804D68D9F80060ED034D46FB
:1003400001D5164300E096432E604D68DAF8006050
:10035000AD03554601D5164300E096432E604D6827
:10036000DBF80060ED025D4601D5164300E09643E0
:100370002E604D68DEF80060AD02754601D516436B
:1003800000E096432E60641C0A6832FA04F57FF49C
:100390003FAFBDE8F88F00000004014000001110DD
:1003A000001002400000014000080140000C014024
:1003B000001001400AB1016170470904FBE7000029
:1003C00001488068704700000400002002488168EE
:1003D000027811448160704704000020074810B57E
:1003E000016841F010010160032000F075F8002061
:1003F00000F006F800F024F8002010BD00200240B4
:1004000070B50D4D04464FF47A712878B1FBF0F0C9
:100410000A490968B1FBF0F000F0B6FC48B9102CAD
:1004200007D200222146501E00F036F800206C60F2
:1004300070BD012070BD00000400002010000020ED
:100440000C4808B5816941F001018161816901F0C1
:1004500001010091C16941F08051C161C06900F0A2
:10046000805000900448416821F0E06141F0007143
:10047000416008BD0010024000000140002809DB77
:1004800000F01F02012191404009800000F1E020AE
:10049000C0F8001170470000F0B40E4B1B680C460A
:1004A000C3F30223C3F10705042D00D90425191D48
:1004B000072901D2002300E0DB1E012606FA05F120
:1004C000491E214099409E40761E16403143F0BCA3
:1004D00002F044B90CED00E0064900F0070208689C
:1004E0004FF6FF03184040EA0220034A1043086019
:1004F000704700000CED00E00000FA0510B50C0696
:1005000007D501F0070101EB810100EBC1002830A4
:1005100005E001EB810100EBC10000F5B47099B278
:1005200032B1012202730181190C4181002010BDFA
:1005300000220273C180F9E7704701EB810200EBF2
:10054000C202D0F8E802D26B01F0A5B801EB81023B
:1005500000EBC202D0F8E802D2F87C2101F0FEB82C
:1005600070B504460B0601F0070000EB800104EBB8
:10057000C1014FF001024FF0000503D581F8292099
:10058000283103E081F8695101F5B471087094F8DD
:10059000A802012808D084F8A822206801F00EFDE6
:1005A00084F8A852002070BD022070BD70B50446CA
:1005B00001F00F006268904201D9012070BD0B0666
:1005C00001F0070000EB800104EBC1014FF00102D4
:1005D0004FF0000503D581F82920283103E081F888
:1005E000695101F5B4718D70087094F8A802012862
:1005F00008D084F8A822206801F07DFD84F8A85274
:10060000002070BD022070BD2DE9F05F04685FEA34
:10061000424C0B788D69B4F850C04FF000064BF691
:100620008F7948F2800A48F68F7B48F2C00E4FF46B
:1006300080672AD54FF0020808EBC308C44407EBD3
:100640004C07E45BC4F30904A54203D32D1B8D6161
:1006500001D00BE08E61066836F8235005EA0905E3
:1006600085F4005545EA0A0526F82350520609D5B7
:100670000D78036833F8252002EA0B0242EA0E02E5
:1006800023F8252084B30A8929E04FF0060808EBF7
:10069000C308C44407EB4C07E45BC4F30904A54258
:1006A00003D32D1B8D6101D00BE08E61066836F8F7
:1006B000235005EA090585F4005545EA0A0526F8A0
:1006C0002350520609D40B78056835F8232002EA36
:1006D0000B0242EA0E0225F823202CB14A8949690F
:1006E0000068234601F0DCFF2046BDE8F09F2DE9BD
:1006F000F05F05460C4600685FEA426C16462278B9
:10070000A369B0F850C04FF0000148F68F774CF263
:1007100080094FF6FF7B4FF4004E4FF4806A6CD592
:100720004FF0020808EBC208E0440AEB480C30F82E
:100730000C00C0F30900834211D91B1AA3610FD02A
:10074000730407D52E6836F822303B4043EA09038C
:1007500026F8223094F82420012A08D0C6E0A161AE
:1007600011462846FFF7E9FE70046CD4BEE06269CA
:1007700002446261E2690244E2612369226A9A42A8
:1007800002D31846111A03E084F824100AB1104667
:100790002162617811B1012923D02BE02968B1F8D9
:1007A00050201144227801EB021101F2044148B1BA
:1007B0003E280FD84208C30700D0521C0BEA822201
:1007C0000A8017E00A8822F4F8420A800A8842F474
:1007D0000042F5E74209C30600D1521E4EEA8222CA
:1007E000EEE72968B1F850201144227801EB02119C
:1007F000A1F8040483B2228974E04FF0060808EBE4
:10080000C208E0440AEB480C30F80C00C0F30900C1
:10081000834211D31B1AA3610FD0730407D42E682F
:1008200036F822303B4043EA090326F8223094F898
:100830002420012A11D059E0A16111462846FFF772
:100840007CFE700452D42278296831F822003840A6
:1008500040EA090021F8220048E06269024462612E
:10086000E2690244E2612369226A9A4203D318468C
:10087000111A216204E00AB11046216284F82410A2
:100880006278296812B1012A22D029E0B1F85020FB
:100890001144227801EB021101F20C4148B13E28CB
:1008A0000FD84208C30700D0521C0BEA82220A80EC
:1008B00016E00A8822F4F8420A800A8842F40042CC
:1008C000F5E74209C30600D1521E4EEA8222EEE746
:1008D000B1F850201144227801EB0211A1F80C0468
:1008E000628983B26169286801F024FF227829684F
:1008F00031F8220048F6BF73184080F0300048F20B
:100900008003184321F822000020BDE8F09F2DE964
:10091000F04104460F0601F0070000EB800104EBF4
:10092000C1014FF001064FF0000503D581F82960A1
:10093000283103E081F8695101F5B47108700A614A
:10094000CB704A7802B1C881022B00D10D7194F8A6
:10095000A802012809D084F8A862206801F000FAF2
:10096000284684F8A852BDE8F0810220FBE770B564
:100970000C4601F0070505EB850100EBC101C1E95B
:100980005F230022C1F8842181F8692181F8685130
:1009900001F5B4716207006801F002FC002070BD2F
:1009A00070B504460D4601F007006168884201D920
:1009B000012070BD29064FF000064FF0010207D557
:1009C00000EB800104EBC10181F82920283107E008
:1009D00005EB850104EBC10181F8696101F5B47192
:1009E0008A70087094F8A802012807D084F8A82219
:1009F000206801F0BCFB680702D006E0022070BD51
:100A000004F52C71206801F074FB84F8A8620020C2
:100A100070BD70B50C4601F0070505EB850100EBD4
:100A2000C101C1E90F23012281F84C208B6400230E
:100A30004B6481F8292001F8285F6207006801F003
:100A4000AFFB002070BD1FB50446006801F024FE16
:100A5000000402D5204600F009FA206801F01CFECF
:100A600040050CD5206830F8441F21F480610180D6
:100A7000204600F027F90021204600F03EF92068CA
:100A800001F00AFE400405D5206830F8441F21F427
:100A900080410180206801F0FFFD800405D52068B9
:100AA00030F8441F21F400510180206801F0F4FD6A
:100AB000C00414D5206830F8401F21F004010180E3
:100AC000206830F8401F21F008010180204600F026
:100AD0000CF9206830F8441F21F48051018020680F
:100AE00001F0DAFD00053ED522680020694632F8A3
:100AF000203021F81030401CC0B20828F7D332F85B
:100B0000400F40F001001080206830F8402F22F0A4
:100B1000010202802068B0F844205205FBD530F86D
:100B2000442F22F4806202800020236831F81020D4
:100B300023F82020401CC0B20828F6D3206830F8E3
:100B4000401F41F008010180206830F8441F21F463
:100B500000610180206830F8401F41F004010180ED
:100B6000204600F0FFF8206801F096FD800508D5CA
:100B7000206830F8441F21F400710180204600F005
:100B8000B8F8206801F088FDC00505D5206830F868
:100B9000441F21F4807101801FBD00002DE9F04148
:100BA00086B0040004D094F8A902002520B108E022
:100BB000012006B0BDE8F08184F8A852204600F07C
:100BC0005BF8032084F8A902206801F08BFA04F195
:100BD0001001142288466846FFF7A6FA94E80F0031
:100BE00001F0EAF90226D0BB0021206801F09AFD4D
:100BF000002001270FE000BF00EB800104EBC101E2
:100C000081F8297001F8280FC881CD700D614D6100
:100C1000401CC0B28D6161688142EDD8002011E0B6
:100C200000EB800104EBC10181F8695181F8680192
:100C300081F86B51C1F87851C1F87C51401CC0B2A9
:100C4000C1F8805161688142EAD814224146684661
:100C5000FFF76AFA94E80F0001F03BFA10B184F84C
:100C6000A962A5E784F8245084F8A972206801F0ED
:100C70002EFA00209DE7000008B500680F49884261
:100C80001AD10F48C16941F40001C161C069002255
:100C900000F40000009011461320FFF7FDFB132025
:100CA000FFF7ECFB002211461420FFF7F5FBBDE82F
:100CB00008401420FFF7E2BB08BD0000005C0040C4
:100CC0000010024070B5044680680125022801D05A
:100CD000FFF77BFA2946D4F8E80200F018FED4F8B2
:100CE000E802BDE8704000F0D4BDD0F8E80200F0A2
:100CF000F8BDD0F8E80200F0FEBD10B5044690F84B
:100D0000A80201280BD0012084F8A80284F824103E
:100D1000206801F009FD002084F8A80210BD02201F
:100D200010BDD0F8E82200F52C71104600F0FBBD94
:100D300010B5044690F8A802012810D0012084F8CC
:100D4000A802206801F093FC01212046FFF7F4FB84
:100D5000206801F0BAF9002084F8A80210BD022032
:100D600010BD000010B50446D0F8E80200F01AFEED
:100D7000A069002804D00348016841F00601016021
:100D800010BD000010ED00E010B5401EB0F1807FF6
:100D900001D3012010BD4FF0E02460610F216017E6
:100DA00001F0DCFC0020A06107202061002010BDC4
:100DB000FEE70000F0B500230A24302537261F4641
:100DC00011E000BFB4EB107F02D905EB107C01E00D
:100DD00006EB107C01F813C001EB430C00015B1C17
:100DE0008CF80170DBB29342ECD3F0BD044908B536
:100DF0008A6902438A6189690140009108BD000047
:100E000000100240014908607047000010000020F7
:100E100010B51020FFF7EAFF2020FFF7E7FFBDE83D
:100E200010400420FFF7E2BF10B500220B490C4828
:100E300000F00AFC08B1FFF7C8F90A49084800F0B9
:100E4000D7FD08B1FFF7C1F9054800F027FE0028DB
:100E500003D0BDE81040FFF7B8B910BD1400002062
:100E60006C01002064000020FEE7FEE72DE9F84F4A
:100E7000044640F68F7B48F60F7A4FF002094FF494
:100E8000806868E1B0F8441011F00F0638D030F8EF
:100E9000267039047ED530F8261001EA0B0141F0A6
:100EA000800120F8261006EB860004EBC00595F8BB
:100EB000740105F5B47500286DD0E87802286BD070
:100EC0002A78216831F8220048F68F73184048F2DA
:100ED000C003184321F822002978206830F8212027
:100EE000B0F8503052047DD509EBC1015A1808EB17
:100EF0004201415A8905890D009174D02A89D2E0B6
:100F0000C9062DD4018801EA0A0141F4004101809B
:100F1000206804F12805B0F850302A7809EBC201A6
:100F20005A1808EB4201405AC0F309006064E16BB3
:100F30000844E06300212046FFF7FFFA94F82400FC
:100F400000289ED0A86900289BD194F8240040F086
:100F500080012068A0F84C10002084F82400FAE0FA
:100F6000018804F5B4750A0521D5B0F850302A7807
:100F7000062101EBC2015A1808EB4201405A04F560
:100F80002C71C0F30903EB61EA88206801F088FB4B
:100F9000216802E0A2E062E072E0088800EA0B004B
:100FA00040F0800008802046FFF7BBFED3E0090434
:100FB000D5D5018801EA0B0141F08001018020684C
:100FC000B0F850202B78062101EBC3010A4408EB4E
:100FD0004201405A83059B0DEB6110D0696971B1E4
:100FE000EA8801E053E051E0206801F059FBE9692B
:100FF00068690844686100212046FFF7A7FA206865
:10100000B0F850100844296900F20C4051B13E2953
:1010100010D84A08C90700D0521C4FF6FF7101EAE8
:1010200082210FE0018821F4F8410180018841F418
:10103000004107E04A09C90600D1521E4FF40041A1
:1010400041EA82210180206801884BF68F721140AD
:1010500081F4405148F28002114301807BE0206816
:10106000B0F850102A78062303EBC2020A4408EBBA
:101070004201415A8905890D009118D0EA8812E091
:101080003A4629462046FFF7BFFA00900FE00622B5
:1010900002EBC1015A1808EB4201415A8905890D3A
:1010A000009104D06A896969009B01F0F9FAE96945
:1010B00000980844E8616969009808446861A86973
:1010C00018B129690098814204D929782046FFF790
:1010D0003DFA03E02946206801F062F838063AD567
:1010E000226806EB860004EBC00132F8260000EA15
:1010F0000A0040F4004022F8260091F82B00283125
:10110000022801D1F80522D42268B2F850300D78B7
:1011100009EBC500034408EB4300105A8A69C0F389
:10112000090082420CD9121A8A610BD04A69024422
:101130004A61CA691044C861206801F031F80AE0C8
:1011400000208861E9B22046FFF7F7F903E03A464C
:101150002046FFF7CCFA2068B0F8441009043FF5A8
:1011600091AE0020BDE8F88F70477047FFF72EB9A9
:10117000264810B5016821F0070141F00201016025
:10118000016801F007010229FAD1214C206840F4DE
:10119000803020602068C0F340400028FAD06068AA
:1011A00020F47C1040F4E8106060206840F080700B
:1011B00020602068C0F340600028FAD0606820F00A
:1011C000F0006060606820F4E06040F4806060607F
:1011D000606820F460506060606820F0030040F0B8
:1011E00002006060606800F00C000828FAD109482D
:1011F000FFF708FE0020FFF703F908B172B6FEE71B
:10120000606820F48000606010BD00000020024093
:101210000010024000A24A04704710B5D0F8B42272
:1012200052689047002010BD134610B50A460021B1
:1012300000F026FB002010BD134610B50A46002121
:1012400000F0B9FB002010BD10B50446802100F06D
:1012500097FB2046BDE81040002100F091BB10B57F
:1012600005210023C0F894121A46194600F008FB25
:10127000002010BD10B50223C261C0F89432026292
:1012800013460A46002100F096FB002010BD10B561
:1012900004210023C0F894121A46194600F08BFB73
:1012A000002010BD10B50A46024903A000F0E2F884
:1012B000004810BD3004002048494420436F6E664A
:1012C0006967000012200880004870473400002041
:1012D00010B50A46024903A000F0CCF8004810BD42
:1012E0003004002048494420496E74657266616389
:1012F000650000000420088000487047300000208E
:1013000010B50A46024903A000F0B4F8004810BD29
:101310003004002053544D6963726F656C656374CB
:10132000726F6E696373000010B50A46024903A02C
:1013300000F0A0F8004810BD3004002053544D3395
:10134000322048756D616E20696E746572666163E6
:101350006500000010B51A2008800A480168001DC9
:101360000468001D0068081809D008220649FFF724
:1013700021FD0549042210312046FFF71BFD0248DC
:10138000801E10BDE8F7FF1F4A000020F8B5044694
:101390000020ADF8000048880D46010A082948D20F
:1013A000DFE801F04704091747473C45D4F8B0127D
:1013B000207C0A6819E0207C02260028D4F8B402B8
:1013C00005D0C16A68468847014646703EE0816A9A
:1013D000F8E7C0B206282CD2DFE800F0030A1014A8
:1013E000181CD4F8B002426805E0694690471CE03A
:1013F000D4F8B0028268E2B1207CF6E7D4F8B002FB
:10140000C268F8E7D4F8B0020269F4E7D4F8B00291
:101410004269F0E7D4F8B0028269ECE7207C40B979
:10142000D4F8B402416B6846884701460EE0207C40
:1014300020B129462046FFF707FFF8BDD4F8B402D3
:10144000016B68468847014607204870BDF80000D8
:1014500048B1EA8852B1824200D90246ADF8002074
:101460002046FFF707FFE8880028E6D12046FFF76F
:101470000EFFF8BD70B5002300281ED004460025DD
:1014800002E06D1CEDB2641C2678002EF9D1022416
:1014900004EB450414801278CA545B1C0322CA541E
:1014A00000245B1C06E0CA545B1CDAB28C54521C4C
:1014B000D3B2401C0278002AF5D170BD01004FF074
:1014C000000004D0012901D0022901D00220704778
:1014D00001207047D0F8B802002101730846704718
:1014E00070B50446812100F0CDF80025E562D4F8FE
:1014F000B80218B100F02FFCC4F8B852002070BD3B
:101500000A21018000487047140100202221018037
:10151000004870479C00002022210180004870474D
:10152000C00000202221018000487047E400002014
:1015300010B5044604230322812100F095F901200F
:10154000E062102000F008FCC4F8B80218B10021D5
:101550000173084610BD022010BD10B5134690F867
:101560009C42D0F8B822032C07D1147B2CB901245B
:1015700014730A46812100F01EFA002010BD0000FD
:1015800038B503460022D0F8B802ADF80020144662
:101590000A7812F0600216D0202A4AD14A78022A2C
:1015A0000ED0032A06D00A2A06D00B2A41D1897808
:1015B000016042E001222BE04988090A41603CE0D9
:1015C0000122011D25E04A7832B1062A0BD00A2AF1
:1015D00023D00B2A2DD128E093F89C02032828D190
:1015E0000222694615E048882222B2EB102F05D16D
:1015F000CA884A2A00D94A22124809E02122B2EBBD
:10160000102F16D10F48CA881838092A00D9092284
:1016100001461846FFF72EFE0FE093F89C22032A9E
:1016200007D1012200F10801F3E793F89C22032A75
:1016300005D01846FFF708FE0224204638BD8978F9
:101640008160FAE72001002010B580B1D0F8B432F3
:1016500013B10023C0F8B43209B1C0F8B0120121AF
:1016600080F89C12027000F0BBF8002010BD022030
:1016700010BD10B5D0F8C002FEF798FFBDE81040CD
:10168000FFF71CBF10B5D0F8C002FEF769FFBDE838
:101690001040FFF713BF2DE9F0411746044651B142
:1016A000D4F8B40242691AB194F89C02032851D0CC
:1016B0000220BDE8F081D4F89432002504F1140032
:1016C000022B03D0042B3AD0C3B33CE0D0E9036330
:1016D0009E4207D9F11AC1608AB239462046FFF707
:1016E000ABFD12E08068B0FBF3F103FB110199B987
:1016F000984211D3D4F8981288420DD20022114694
:101700002046FFF799FDC4F8985200231A4619465F
:10171000204600F0B5F816E0D4F8B402C16829B14B
:1017200094F89C02032801D1204688478021204656
:1017300000F026F92046FFF792FD04E0FFE7802144
:10174000204600F01DF994F8A002012804D184F885
:10175000A05201E0204690470020AAE770B5154648
:10176000044649B1D4F8B40282691AB194F89C02D3
:10177000032830D0022070BDD4F8941204F5AA706A
:10178000032902D005291ED027E0D0E903218A428F
:101790000BD9531AC3600846834200D303469AB25A
:1017A00029462046FFF740FD17E0D4F8B40201694E
:1017B00029B194F89C02032801D12046884720468D
:1017C000FFF765FD09E000200146C4F894022046B9
:1017D00000F0D6F801E020469047002070BD0000E0
:1017E00010B517490446C1F8E802C0F8C012154800
:1017F0000860082048600220886000208861C86175
:1018000008620846FFF7CAF908B1FEF7DEFC0022BD
:10181000D4F8C0021823114604F53074FEF76EFEAA
:101820005823002280212068FEF768FE4FF4807361
:10183000002281212068FEF761FE002010BD00001B
:1018400044060020005C00400A0601F07F01D0F849
:10185000C00201EB810100EBC10002D590F82A0023
:10186000704790F86A01704710B51C461346D0F8CF
:10187000C0022246FFF74BF8BDE81040FFF71EBE3E
:1018800010B5D0F8C002FFF772F8BDE81040FFF7BE
:1018900015BE70B50022044640231146FFF7E4FF51
:1018A00040260125C4F86461334600228021204689
:1018B000C4F85851FFF7D8FF6662A56184F89C52BE
:1018C0000020C4F894026060C4F8A402D4F8B802FE
:1018D00028B1D4F8B4020021426820469047002085
:1018E00070BD90F89C12042903D190F89D1280F8E5
:1018F0009C120020704710B590F89C12032904D167
:10190000D0F8B412C96901B18847002010BD017434
:101910000020704710B5D0F8C002FFF7EEF9BDE81F
:101920001040FFF7CBBD70B5044600F52A700546A0
:1019300000F04AF80120C4F89402B4F8AE02C4F8EA
:10194000980294F8A80210F01F010AD001290DD0C6
:10195000022910D000F08001204600F011F800208C
:1019600070BD2946204600F09EF8F8E7294620463B
:1019700000F0CAF9F3E72946204600F01DF9EEE72A
:1019800010B5D0F8C002FFF70BF8BDE81040FFF724
:1019900095BD10B5D0F8C002FFF7CAF9BDE81040F8
:1019A000FFF78CBD90F89C1280F89D12042180F8FE
:1019B0009C120020704710B5D0F8C002FFF729F83C
:1019C000BDE81040FFF77ABD0A7802704A7842708D
:1019D0008A78CB7802EB032242800A794B7902EBBA
:1019E000032282808A79C97902EB0121C180704784
:1019F0000246002011B1C2F8B412704702207047AD
:101A000010B5D0F8B42202241AB11268904700B978
:101A10000024204610BD000070B50E461E4D89788A
:101A200004462970012931D894F89C0202280BD071
:101A300003280FD031462046FFF706FC29782046C0
:101A4000BDE87040FFF7E9BBD9B10320616084F8BD
:101A50009C0209E071B16068884212D0C1B2204690
:101A6000FFF7DBFB297861602046FFF7C9FF0228FA
:101A70000CD006E0022084F89C0220466160FFF74B
:101A8000CCFB2046BDE87040FFF701BC3146204644
:101A9000BDE87040FFF7D8BB6200002010B5FFF72B
:101AA00078FF002010BD2DE9F0410A78002612F0E1
:101AB000600208D0202A01D0402A70D1D0F8B42288
:101AC000926890476DE04B78002201250A2B66D280
:101AD000DFE803F0405D6557650805652C29FFF7D1
:101AE00055FC5EE004468888D8B9C888C8B94888DB
:101AF000802816D200F07F0794F89C02032810D0AB
:101B000084F89E7239462046FFF704FF2046FFF70F
:101B1000BEFB1FB1022084F89C0242E084F89C5274
:101B20003FE020463BE0FFF777FF3AE0CB88012B10
:101B300035D190F89C32012B04D0022B02D0032B1C
:101B40002DD104E08260012200F1080116E001229B
:101B5000011D13E090F89C22012A03D0022A01D033
:101B6000032A1CD1CA88022A19D1C560D0F8A41250
:101B700009B10321C160022200F10C01FFF77AFBD9
:101B80000FE0498801290CD1C0F8A45211E090F867
:101B90009C32012B08D0022B06D0032B04D0FFF778
:101BA00053FB3046BDE8F08149880129F9D1C0F8DE
:101BB000A422FFF76CFBF4E72DE9F0410A46044646
:101BC00010780027097910F060030AD0202B01D08B
:101BD000402B50D1D4F8B402114683682046984770
:101BE0008FE0C0F34110012806D05078D0B301280F
:101BF0002AD003283FD107E0D4F8B4021146836805
:101C00002046BDE8F041184794F89C02022802D013
:101C1000032872D10AE071B380296ED02046FFF705
:101C2000AFFE80212046FFF7ABFE6AE0508838B94E
:101C300031B1802904D0D08810B92046FFF7A0FE2A
:101C40002046FFF724FB5CE094F89C020228E2D0D7
:101C5000032852D1508898BB4806F1D02046FFF7A0
:101C600008FDEDE7FFE794F89C020026022803D068
:101C7000032842D112E040E009B180293DD1080695
:101C800001F07F0000EB800004EB800101D51431EE
:101C900001E001F5AA7102220E602AE0080601F0B7
:101CA0000F0000EB800004EB80000AD5806920B3B0
:101CB00001F07F0000EB800004EB800514350BE0A1
:101CC0001FE0D0F85801C0B101F07F0000EB8000A8
:101CD00004EB800505F5AA7541B1802906D02046A0
:101CE000FFF7B2FD10B10120286000E02E60022253
:101CF00029462046FFF7BEFA03E011462046FFF7CB
:101D0000A3FA3846BDE8F08170B5054608780C4660
:101D100010F0600003D0202801D0402816D195F89B
:101D20009C02012803D0022801D003280ED120797B
:101D300001280BD8D5F8B402826828469047E1887C
:101D4000014306D12846FFF7A2FA02E02846FFF732
:101D50007BFA002070BD70470048704730060020B5
:101D60002DE9F0470C78002630F8243048F68F1221
:101D70001340CA78002A7DD0012A7CD0022A02D0E2
:101D8000032A7FD0012648F28002134320F8243032
:101D90000D7830F8254048F68F731C402C431443CF
:101DA00020F825400D7B48F2C00C48F6BF744CF279
:101DB00080074BF68F79EDB391F80080C24630F87A
:101DC000285048F280181D4045EA080520F82A509E
:101DD000B0F8505091F80080054405EB0815B1F8B3
:101DE000088028F00108A5F80084B0F8505091F858
:101DF0000080054405EB0815B1F80A8028F00108B9
:101E0000A5F808844D78002D0D7830F825804FEA2C
:101E100048487DD0B8F1000F07DA30F8258008EA8D
:101E2000030848EA070820F825800F7830F8275083
:101E30006D0600E02CE006D530F827501D4045EA3D
:101E40000C0520F82750CB780D78012B30F8253081
:101E500003EA040301D083F02003134320F8253064
:101E60000B7830F8231001EA0901114320F8231000
:101E7000304602E003E008E004E0BDE8F08743F408
:101E8000007380E743F4C0637DE743F480637AE73F
:101E90004D782DB3B0F850500F78054405EB071579
:101EA000CF8827F00107A5F800740F7830F8275085
:101EB0006D0606D530F827501D4045EA0C0520F880
:101EC0002750CB78012B06D00B7830F82310214017
:101ED00081F02001C9E70B7830F823102140C4E7D6
:101EE000B0F850400D78044404EB0514CD8825F07B
:101EF0000105A4F80854B0F850400D78044404EBF0
:101F000005140D6904F20C4475B13E2D14D800E09F
:101F100030E04FEA550CED0701D00CF1010C4FF603
:101F2000FF7505EA8C2511E0258825F4F845258004
:101F3000258845F4004509E04FEA551CED0601D11E
:101F4000ACF1010C4FF4004545EA8C2525800D7855
:101F500030F82540640405D530F825401C403C434A
:101F600020F825400B7830F8231001EA090181F4AC
:101F700040517AE7B8F1000F07DA30F8258008EA17
:101F8000030848EA070820F825800F7830F8275022
:101F90006D0606D530F827501D4045EA0C0520F89F
:101FA00027500D7830F8253003EA090383F44053B5
:101FB000134320F825308EE7002070472DE9F043C9
:101FC00091F80C804F780A7848F6BF7C4BF68F79F1
:101FD00048F2800348F2C0054CF2800648F68F7440
:101FE000B8F1000F28D0002F30F822704FEA474791
:101FF00048D0002F05DA30F822702740374320F808
:1020000022700A7830F822707F0605D530F82270E9
:1020100027402F4320F822700D7830F825202240E9
:10202000324320F825200C7830F8242002EA0C02F4
:102030001A4320F824201AE07FB130F82260760697
:1020400005D530F8226026402E4320F822600A7819
:1020500030F8221001EA0C010EE030F822506D0435
:1020600005D530F822502540354320F822500A7813
:1020700030F8221001EA0901194320F8221000204B
:10208000BDE8F083002F05DA30F82270274037438F
:1020900020F822700A7830F82260760605D530F8EC
:1020A000226026402E4320F822600E7830F8262049
:1020B00022402A4320F826200C7830F8242002EA17
:1020C00009021A4320F82420C1E7002070470020AD
:1020D0007047012120F8401F00210180818001828A
:1020E0000846704730F8401F21F43F41018000202E
:1020F00070470020704730B50A7BB2BB4A7848F67B
:102100008F7548F28004C2B10B7830F82320520654
:1021100007D530F823202A4048F2C0052A4320F88A
:102120002320CA78012A20D00A7830F8221048F6F5
:10213000BF73194081F0200114E00A7830F8223092
:102140005B0407D530F822302B404CF280052B433E
:1021500020F822300A7830F822104BF68F7319409D
:1021600081F44051214320F82210002030BD10B5E9
:102170004A780978002A48F2800330F8212005D0F7
:1021800048F6BF74224082F0100204E04BF68F74D0
:10219000224082F480521A4320F82120002010BDF2
:1021A0002DE9F04F0D464A78097B04464FF00009AF
:1021B00048F68F7A48F2800B4FF6FF774FF40048CD
:1021C000012A09D000297DD0E87802287BD0012897
:1021D0007AD00120BDE8F08FAE692869864200D927
:1021E000064681B1E97802291CD0287834F82010FD
:1021F0004906B4F85010214401EB001070D5A0F846
:102200000C646A8928E1B3B2EA882046696900F063
:1022100091FAB4F850002978204400EB0110A0F89E
:10222000046435E1296A814276D9297834F821009D
:1022300048F2801200EA0A00104324F82100286ABC
:10224000801B2862287834F820104906697876D5F2
:1022500011B1012921D027E0B4F85010214401EB3D
:10226000001000F20C404EB13E2E0FD87108F2075C
:1022700000D0491C07EA8121018015E0018821F482
:10228000F8410180018841F40041F5E77109F20647
:1022900000D1491E48EA8121EEE7B4F85020111917
:1022A00001EB0010A0F80C646A89B3B2204669699A
:1022B00000F040FA6869304468612969286A8842F8
:1022C00006D902E0EDE00DE178E1801B286202E032
:1022D0000646C5F82090687818B1012824D02BE074
:1022E000B7E0B4F850002978204400EB011000F268
:1022F00004404EB13E2E10D87108F20700D0491CA0
:1023000007EA8121018017E0018821F4F84101806A
:10231000018841F40041F5E786E07109F20600D139
:10232000491E48EA8121EDE7B4F85000297820449D
:1023300000EB0110A0F804642A896FE0FFE711B1F7
:10234000012921D027E0B4F85010214401EB0010FE
:1023500000F204404EB13E2E0FD87108F20700D0B3
:10236000491C07EA8121018015E0018821F4F84128
:102370000180018841F40041F5E77109F20600D1BE
:10238000491E48EA8121EEE7B4F85010214401EBE0
:102390000010A0F804642A89B3B22046696900F0ED
:1023A000C9F96869304468612969286A884202D994
:1023B000801B286202E00646C5F82090687810B1BC
:1023C000012822D029E0B4F850002978204400EBFD
:1023D000011000F20C404EB13E2E0FD87108F207EA
:1023E00000D0491C07EA8121018016E0018821F410
:1023F000F8410180018841F40041F5E77109F206D6
:1024000000D1491E48EA8121EEE7B4F850100819BE
:10241000297800EB0110A0F80C646A89B3B2204659
:10242000696900F087F933E02A7834F8220048F629
:102430008F63184040EA0B0024F82200B4F85000E3
:102440002A78204400EB02108BB2A0F804342A89C9
:10245000E5E7A0F804642A89B3B22046696900F070
:1024600069F9687810B1012808D011E0297834F8AA
:10247000210048F2C00200EA0A0006E0297834F898
:1024800021004CF2800200EA0A00104324F82100E7
:10249000297834F8210048F6BF72104080F03000EF
:1024A000DFE0A9692869814202D9091AA961B6E069
:1024B0000846C5F81890B2E0088820F4F840088073
:1024C000088840F400400BE03E2876D84208C00758
:1024D00000D0521C07EA822002E000BF48EA8220B6
:1024E0000880B6E092B9B4F850002978204400EB97
:1024F0000110296900F2044069B13E2913D84A0845
:10250000C90700D0521C07EA82210180687888B18F
:10251000012832D03AE0018821F4F8410180018895
:1025200041F40041F1E74A09C90600D1521E48EAC8
:102530008221EAE7B4F850002978204400EB01102A
:10254000296900F20C4049B13E290FD84A08C90751
:1025500000D0521C07EA8221018017E0018821F493
:10256000F8410180018841F40041F5E74A09C906B4
:1025700000D1521E48EA8221EEE7B4F85010081943
:10258000297800EB0110298AA0F80C14E869B0B38F
:10259000297834F82100420401D5420603D444F2DC
:1025A0004002104255D134F8210048F2C00200EA3E
:1025B0000A00104324F821004BE03CE0A969286997
:1025C000814202D9091AA96102E00846C5F81890AB
:1025D0008AB9B4F850102A78214401EB021101F2B3
:1025E000044168B13E2813D84208C30700D0521CEA
:1025F00007EA82220A80697889B1012921D028E07E
:102600000A8822F4F8420A800A8842F40042F1E77C
:102610004209C30600D1521E48EA8222EAE7B4F812
:1026200050102A78214401EB021101F20C410028DC
:102630007FF44AAF40E74209C0067FF44FAF521E15
:102640004CE7B4F8502011192A7801EB0211A1F8D7
:102650000C04297834F821004BF68F72104080F476
:10266000405040EA0B0024F821000020B2E5002190
:10267000A0F844104FF43F41A0F8401000207047EC
:102680000148FEF7E0B90000440600200148FEF7CB
:10269000DAB9000044060020B0F84400704700009A
:1026A00010B500EB42005C0800F5806009D000BF67
:1026B00030F8042B01F8012B120A01F8012B641EDB
:1026C000F6D1DA0701D00088087010BD30B585B0AA
:1026D000002002901148816941F004018161806904
:1026E0004FF4805400F0040004900120CDE9004034
:1026F00002200B4D039069462846FDF77BFD002222
:1027000021462846FDF756FE6420FDF761FD0122B3
:1027100021462846FDF74EFE05B030BD00100240B0
:10272000000801400020704711B98021A0F84C102A
:102730000020704710B55B1C00EB42005B0800F501
:10274000806009D011F8012B11F8014B42EA0422F4
:1027500020F8042B5B1EF5D110BDFEE70907090E1A
:10276000002804DB00F1E02080F80014704700F03E
:102770000F0000F1E02080F8141D704702E008C847
:10278000121F08C1002AFAD170477047002001E0EB
:1027900001C1121F002AFBD17047000008B5FDF7E8
:1027A0001DFEFEF7E5FCFFF791FFFEF731FBFEF79C
:1027B0003BFB00240B4D4FF4FA67FF263846FDF72C
:1027C00007FD28780422401C28708DF800408DF801
:1027D00001408DF802408DF8036069460248FEF71B
:1027E000BCFEEBE7000000206C0100200C28000874
:1027F000000000206C01000070010008E4280008BF
:102800006C010020C40B00008C27000841320182BB
:10281000101324F413C5121B08F5041301131B082D
:1028200029041A55041AA5101AD10417040309041F
:1028300012013202164083042B571D02010203418C
:10284000031A1A031331151408E1141B08810881B7
:102850001AD51001101A19201A0D041A25041A018C
:1028600004140902221301011DE0320904A5140316
:10287000010215092111011401224A1607058103DD
:1028800004220A091F240A21072429486912314B0E
:102890000A06E019D711100A05010902A101090170
:1028A000A1100805091901290315180F2501950321
:1028B00075018102950175058101201816300931D5
:1028C00009381581257F750895038106C0093C05E7
:1028D000FF09C02010250175019502B122750695EA
:0428E00001B101C081
:04000005080000ED02
:00000001FF
